{
  "_format": "hh-sol-artifact-1",
  "contractName": "BayStudentDao",
  "sourceName": "contracts/BayStudentDao.sol",
  "abi": [
    {
      "anonymous": false,
      "inputs": [
        {
          "indexed": true,
          "internalType": "address",
          "name": "owner",
          "type": "address"
        },
        {
          "indexed": true,
          "internalType": "address",
          "name": "spender",
          "type": "address"
        },
        {
          "indexed": false,
          "internalType": "uint256",
          "name": "value",
          "type": "uint256"
        }
      ],
      "name": "Approval",
      "type": "event"
    },
    {
      "anonymous": false,
      "inputs": [
        {
          "indexed": true,
          "internalType": "address",
          "name": "previousOwner",
          "type": "address"
        },
        {
          "indexed": true,
          "internalType": "address",
          "name": "newOwner",
          "type": "address"
        }
      ],
      "name": "OwnershipTransferred",
      "type": "event"
    },
    {
      "anonymous": false,
      "inputs": [
        {
          "indexed": true,
          "internalType": "address",
          "name": "from",
          "type": "address"
        },
        {
          "indexed": true,
          "internalType": "address",
          "name": "to",
          "type": "address"
        },
        {
          "indexed": false,
          "internalType": "uint256",
          "name": "value",
          "type": "uint256"
        }
      ],
      "name": "Transfer",
      "type": "event"
    },
    {
      "inputs": [],
      "name": "INITIAL_SUPPLY",
      "outputs": [
        {
          "internalType": "uint256",
          "name": "",
          "type": "uint256"
        }
      ],
      "stateMutability": "view",
      "type": "function"
    },
    {
      "inputs": [
        {
          "internalType": "address",
          "name": "owner",
          "type": "address"
        },
        {
          "internalType": "address",
          "name": "spender",
          "type": "address"
        }
      ],
      "name": "allowance",
      "outputs": [
        {
          "internalType": "uint256",
          "name": "",
          "type": "uint256"
        }
      ],
      "stateMutability": "view",
      "type": "function"
    },
    {
      "inputs": [
        {
          "internalType": "address",
          "name": "spender",
          "type": "address"
        },
        {
          "internalType": "uint256",
          "name": "amount",
          "type": "uint256"
        }
      ],
      "name": "approve",
      "outputs": [
        {
          "internalType": "bool",
          "name": "",
          "type": "bool"
        }
      ],
      "stateMutability": "nonpayable",
      "type": "function"
    },
    {
      "inputs": [
        {
          "internalType": "address",
          "name": "account",
          "type": "address"
        }
      ],
      "name": "balanceOf",
      "outputs": [
        {
          "internalType": "uint256",
          "name": "",
          "type": "uint256"
        }
      ],
      "stateMutability": "view",
      "type": "function"
    },
    {
      "inputs": [
        {
          "internalType": "uint256",
          "name": "_mean_score",
          "type": "uint256"
        },
        {
          "internalType": "uint256",
          "name": "_total_entry_fee",
          "type": "uint256"
        }
      ],
      "name": "calculate_incentive_for_tutor",
      "outputs": [
        {
          "internalType": "uint256",
          "name": "",
          "type": "uint256"
        }
      ],
      "stateMutability": "pure",
      "type": "function"
    },
    {
      "inputs": [
        {
          "internalType": "uint256",
          "name": "share",
          "type": "uint256"
        },
        {
          "internalType": "uint256",
          "name": "total_share",
          "type": "uint256"
        },
        {
          "internalType": "uint256",
          "name": "_total_entry_fee",
          "type": "uint256"
        }
      ],
      "name": "calculate_incentive_for_voter",
      "outputs": [
        {
          "internalType": "uint256",
          "name": "",
          "type": "uint256"
        }
      ],
      "stateMutability": "pure",
      "type": "function"
    },
    {
      "inputs": [
        {
          "internalType": "uint256",
          "name": "_vote_score",
          "type": "uint256"
        },
        {
          "internalType": "uint256",
          "name": "_mean_score",
          "type": "uint256"
        }
      ],
      "name": "calculate_share_for_voter",
      "outputs": [
        {
          "internalType": "uint256",
          "name": "",
          "type": "uint256"
        }
      ],
      "stateMutability": "pure",
      "type": "function"
    },
    {
      "inputs": [
        {
          "internalType": "uint256",
          "name": "_lesson_id",
          "type": "uint256"
        }
      ],
      "name": "close_lesson",
      "outputs": [],
      "stateMutability": "nonpayable",
      "type": "function"
    },
    {
      "inputs": [
        {
          "internalType": "address",
          "name": "_tutor_wallet_address",
          "type": "address"
        },
        {
          "internalType": "uint256",
          "name": "_entry_fee",
          "type": "uint256"
        }
      ],
      "name": "create_lesson",
      "outputs": [],
      "stateMutability": "nonpayable",
      "type": "function"
    },
    {
      "inputs": [],
      "name": "decimals",
      "outputs": [
        {
          "internalType": "uint8",
          "name": "",
          "type": "uint8"
        }
      ],
      "stateMutability": "view",
      "type": "function"
    },
    {
      "inputs": [
        {
          "internalType": "address",
          "name": "spender",
          "type": "address"
        },
        {
          "internalType": "uint256",
          "name": "subtractedValue",
          "type": "uint256"
        }
      ],
      "name": "decreaseAllowance",
      "outputs": [
        {
          "internalType": "bool",
          "name": "",
          "type": "bool"
        }
      ],
      "stateMutability": "nonpayable",
      "type": "function"
    },
    {
      "inputs": [
        {
          "internalType": "uint256",
          "name": "_lesson_id",
          "type": "uint256"
        }
      ],
      "name": "distribute_incentives",
      "outputs": [],
      "stateMutability": "nonpayable",
      "type": "function"
    },
    {
      "inputs": [
        {
          "internalType": "address",
          "name": "spender",
          "type": "address"
        },
        {
          "internalType": "uint256",
          "name": "addedValue",
          "type": "uint256"
        }
      ],
      "name": "increaseAllowance",
      "outputs": [
        {
          "internalType": "bool",
          "name": "",
          "type": "bool"
        }
      ],
      "stateMutability": "nonpayable",
      "type": "function"
    },
    {
      "inputs": [
        {
          "internalType": "uint256",
          "name": "",
          "type": "uint256"
        }
      ],
      "name": "lessons",
      "outputs": [
        {
          "internalType": "address",
          "name": "tutor_wallet_address",
          "type": "address"
        },
        {
          "internalType": "uint256",
          "name": "entry_fee",
          "type": "uint256"
        },
        {
          "internalType": "bool",
          "name": "status",
          "type": "bool"
        }
      ],
      "stateMutability": "view",
      "type": "function"
    },
    {
      "inputs": [],
      "name": "name",
      "outputs": [
        {
          "internalType": "string",
          "name": "",
          "type": "string"
        }
      ],
      "stateMutability": "view",
      "type": "function"
    },
    {
      "inputs": [],
      "name": "owner",
      "outputs": [
        {
          "internalType": "address",
          "name": "",
          "type": "address"
        }
      ],
      "stateMutability": "view",
      "type": "function"
    },
    {
      "inputs": [
        {
          "internalType": "uint256",
          "name": "_lesson_id",
          "type": "uint256"
        }
      ],
      "name": "participate_lesson",
      "outputs": [],
      "stateMutability": "nonpayable",
      "type": "function"
    },
    {
      "inputs": [],
      "name": "renounceOwnership",
      "outputs": [],
      "stateMutability": "nonpayable",
      "type": "function"
    },
    {
      "inputs": [],
      "name": "symbol",
      "outputs": [
        {
          "internalType": "string",
          "name": "",
          "type": "string"
        }
      ],
      "stateMutability": "view",
      "type": "function"
    },
    {
      "inputs": [],
      "name": "totalSupply",
      "outputs": [
        {
          "internalType": "uint256",
          "name": "",
          "type": "uint256"
        }
      ],
      "stateMutability": "view",
      "type": "function"
    },
    {
      "inputs": [
        {
          "internalType": "address",
          "name": "to",
          "type": "address"
        },
        {
          "internalType": "uint256",
          "name": "amount",
          "type": "uint256"
        }
      ],
      "name": "transfer",
      "outputs": [
        {
          "internalType": "bool",
          "name": "",
          "type": "bool"
        }
      ],
      "stateMutability": "nonpayable",
      "type": "function"
    },
    {
      "inputs": [
        {
          "internalType": "address",
          "name": "from",
          "type": "address"
        },
        {
          "internalType": "address",
          "name": "to",
          "type": "address"
        },
        {
          "internalType": "uint256",
          "name": "amount",
          "type": "uint256"
        }
      ],
      "name": "transferFrom",
      "outputs": [
        {
          "internalType": "bool",
          "name": "",
          "type": "bool"
        }
      ],
      "stateMutability": "nonpayable",
      "type": "function"
    },
    {
      "inputs": [
        {
          "internalType": "address",
          "name": "newOwner",
          "type": "address"
        }
      ],
      "name": "transferOwnership",
      "outputs": [],
      "stateMutability": "nonpayable",
      "type": "function"
    },
    {
      "inputs": [
        {
          "internalType": "uint256",
          "name": "_lesson_id",
          "type": "uint256"
        },
        {
          "internalType": "uint8",
          "name": "_score",
          "type": "uint8"
        }
      ],
      "name": "vote_lesson",
      "outputs": [],
      "stateMutability": "nonpayable",
      "type": "function"
    }
  ],
  "bytecode": "0x60806040526a52b7d2dcc80cd2e400000060065560ff600760006101000a81548160ff021916908360ff16021790555060016008553480156200004157600080fd5b506040518060400160405280601081526020017f42415920546f6b656e202d2074657374000000000000000000000000000000008152506040518060400160405280600681526020017f424159542d7400000000000000000000000000000000000000000000000000008152508160039080519060200190620000c69291906200036d565b508060049080519060200190620000df9291906200036d565b50505062000102620000f66200011c60201b60201c565b6200012460201b60201c565b6200011633600654620001ea60201b60201c565b620005c9565b600033905090565b6000600560009054906101000a900473ffffffffffffffffffffffffffffffffffffffff16905081600560006101000a81548173ffffffffffffffffffffffffffffffffffffffff021916908373ffffffffffffffffffffffffffffffffffffffff1602179055508173ffffffffffffffffffffffffffffffffffffffff168173ffffffffffffffffffffffffffffffffffffffff167f8be0079c531659141344cd1fd0a4f28419497f9722a3daafe3b4186f6b6457e060405160405180910390a35050565b600073ffffffffffffffffffffffffffffffffffffffff168273ffffffffffffffffffffffffffffffffffffffff1614156200025d576040517f08c379a0000000000000000000000000000000000000000000000000000000008152600401620002549062000455565b60405180910390fd5b62000271600083836200036360201b60201c565b8060026000828254620002859190620004a5565b92505081905550806000808473ffffffffffffffffffffffffffffffffffffffff1673ffffffffffffffffffffffffffffffffffffffff1681526020019081526020016000206000828254620002dc9190620004a5565b925050819055508173ffffffffffffffffffffffffffffffffffffffff16600073ffffffffffffffffffffffffffffffffffffffff167fddf252ad1be2c89b69c2b068fc378daa952ba7f163c4a11628f55a4df523b3ef8360405162000343919062000477565b60405180910390a36200035f600083836200036860201b60201c565b5050565b505050565b505050565b8280546200037b906200050c565b90600052602060002090601f0160209004810192826200039f5760008555620003eb565b82601f10620003ba57805160ff1916838001178555620003eb565b82800160010185558215620003eb579182015b82811115620003ea578251825591602001919060010190620003cd565b5b509050620003fa9190620003fe565b5090565b5b8082111562000419576000816000905550600101620003ff565b5090565b60006200042c601f8362000494565b91506200043982620005a0565b602082019050919050565b6200044f8162000502565b82525050565b6000602082019050818103600083015262000470816200041d565b9050919050565b60006020820190506200048e600083018462000444565b92915050565b600082825260208201905092915050565b6000620004b28262000502565b9150620004bf8362000502565b9250827fffffffffffffffffffffffffffffffffffffffffffffffffffffffffffffffff03821115620004f757620004f662000542565b5b828201905092915050565b6000819050919050565b600060028204905060018216806200052557607f821691505b602082108114156200053c576200053b62000571565b5b50919050565b7f4e487b7100000000000000000000000000000000000000000000000000000000600052601160045260246000fd5b7f4e487b7100000000000000000000000000000000000000000000000000000000600052602260045260246000fd5b7f45524332303a206d696e7420746f20746865207a65726f206164647265737300600082015250565b6135a780620005d96000396000f3fe608060405234801561001057600080fd5b50600436106101585760003560e01c806370a08231116100c3578063a63fbf5b1161007c578063a63fbf5b146103db578063a9059cbb146103f7578063acdba08814610427578063dd62ed3e14610457578063e1d1a84114610487578063f2fde38b146104b957610158565b806370a0823114610305578063715018a6146103355780637aef39ac1461033f5780638da5cb5b1461036f57806395d89b411461038d578063a457c2d7146103ab57610158565b8063395093511161011557806339509351146102355780633cb7fde214610265578063418e2a5f146102815780634e33a2a7146102b157806351d3628e146102cd5780635fef767a146102e957610158565b806306fdde031461015d578063095ea7b31461017b57806318160ddd146101ab57806323b872dd146101c95780632ff2e9dc146101f9578063313ce56714610217575b600080fd5b6101656104d5565b6040516101729190612758565b60405180910390f35b6101956004803603810190610190919061231a565b610567565b6040516101a2919061273d565b60405180910390f35b6101b361058a565b6040516101c0919061297a565b60405180910390f35b6101e360048036038101906101de91906122cb565b610594565b6040516101f0919061273d565b60405180910390f35b6102016105c3565b60405161020e919061297a565b60405180910390f35b61021f6105c9565b60405161022c9190612995565b60405180910390f35b61024f600480360381019061024a919061231a565b6105d2565b60405161025c919061273d565b60405180910390f35b61027f600480360381019061027a9190612356565b610609565b005b61029b6004803603810190610296919061237f565b610941565b6040516102a8919061297a565b60405180910390f35b6102cb60048036038101906102c69190612356565b6109f3565b005b6102e760048036038101906102e2919061240a565b610fdc565b005b61030360048036038101906102fe9190612356565b611300565b005b61031f600480360381019061031a9190612266565b6113f2565b60405161032c919061297a565b60405180910390f35b61033d61143a565b005b6103596004803603810190610354919061237f565b6114c2565b604051610366919061297a565b60405180910390f35b6103776115dc565b60405161038491906126eb565b60405180910390f35b610395611606565b6040516103a29190612758565b60405180910390f35b6103c560048036038101906103c0919061231a565b611698565b6040516103d2919061273d565b60405180910390f35b6103f560048036038101906103f0919061231a565b61170f565b005b610411600480360381019061040c919061231a565b6118c7565b60405161041e919061273d565b60405180910390f35b610441600480360381019061043c91906123bb565b6118ea565b60405161044e919061297a565b60405180910390f35b610471600480360381019061046c919061228f565b61190c565b60405161047e919061297a565b60405180910390f35b6104a1600480360381019061049c9190612356565b611993565b6040516104b093929190612706565b60405180910390f35b6104d360048036038101906104ce9190612266565b6119ea565b005b6060600380546104e490613020565b80601f016020809104026020016040519081016040528092919081815260200182805461051090613020565b801561055d5780601f106105325761010080835404028352916020019161055d565b820191906000526020600020905b81548152906001019060200180831161054057829003601f168201915b5050505050905090565b600080610572611ae2565b905061057f818585611aea565b600191505092915050565b6000600254905090565b60008061059f611ae2565b90506105ac858285611cb5565b6105b7858585611d41565b60019150509392505050565b60065481565b60006012905090565b6000806105dd611ae2565b90506105fe8185856105ef858961190c565b6105f99190612a60565b611aea565b600191505092915050565b600854811061064d576040517f08c379a00000000000000000000000000000000000000000000000000000000081526004016106449061289a565b60405180910390fd5b600115156009600083815260200190815260200160002060040160009054906101000a900460ff161515146106b7576040517f08c379a00000000000000000000000000000000000000000000000000000000081526004016106ae906128ba565b60405180910390fd5b60096000828152602001908152602001600020600101546106d7336113f2565b1015610718576040517f08c379a000000000000000000000000000000000000000000000000000000000815260040161070f9061281a565b60405180910390fd5b60005b6009600083815260200190815260200160002060020180549050811015610836573373ffffffffffffffffffffffffffffffffffffffff166009600084815260200190815260200160002060020182815481106107a1577f4e487b7100000000000000000000000000000000000000000000000000000000600052603260045260246000fd5b9060005260206000200160009054906101000a900473ffffffffffffffffffffffffffffffffffffffff1673ffffffffffffffffffffffffffffffffffffffff161415610823576040517f08c379a000000000000000000000000000000000000000000000000000000000815260040161081a9061293a565b60405180910390fd5b808061082e90613052565b91505061071b565b5061085e6108426115dc565b60096000848152602001908152602001600020600101546118c7565b5060096000828152602001908152602001600020600201339080600181540180825580915050600190039060005260206000200160009091909190916101000a81548173ffffffffffffffffffffffffffffffffffffffff021916908373ffffffffffffffffffffffffffffffffffffffff16021790555060096000828152602001908152602001600020600301600760009054906101000a900460ff1690806001815401808255809150506001900390600052602060002090602091828204019190069091909190916101000a81548160ff021916908360ff16021790555050565b60008082670de0b6b3a7640000856109599190612e16565b6109639190612eb2565b90506000670b1a2bc2ec500000600a7ffffffffffffffffffffffffffffffffffffffffffffffffffffffffffffffffa670de0b6b3a76400006002866109a99190612c93565b6109b39190612ab6565b6109bd9190612cff565b6109c79190612ab6565b6109d191906129cc565b905060008113156109e65780925050506109ed565b6000925050505b92915050565b6109fb611ae2565b73ffffffffffffffffffffffffffffffffffffffff16610a196115dc565b73ffffffffffffffffffffffffffffffffffffffff1614610a6f576040517f08c379a0000000000000000000000000000000000000000000000000000000008152600401610a66906128da565b60405180910390fd5b6008548110610ab3576040517f08c379a0000000000000000000000000000000000000000000000000000000008152600401610aaa9061289a565b60405180910390fd5b6000805b6009600084815260200190815260200160002060020180549050811015610c1057600760009054906101000a900460ff1660ff16600960008581526020019081526020016000206003018281548110610b39577f4e487b7100000000000000000000000000000000000000000000000000000000600052603260045260246000fd5b90600052602060002090602091828204019190069054906101000a900460ff1660ff1614610bfd57670de0b6b3a7640000600960008581526020019081526020016000206003018281548110610bb8577f4e487b7100000000000000000000000000000000000000000000000000000000600052603260045260246000fd5b90600052602060002090602091828204019190069054906101000a900460ff1660ff16610be59190612e70565b67ffffffffffffffff1682610bfa9190612a60565b91505b8080610c0890613052565b915050610ab7565b50600060096000848152602001908152602001600020600101546009600085815260200190815260200160002060020180549050610c4e9190612e16565b90506000600960008581526020019081526020016000206002018054905083610c779190612b20565b9050610cc26009600086815260200190815260200160002060000160009054906101000a900473ffffffffffffffffffffffffffffffffffffffff16610cbd83856114c2565b6118c7565b506000805b6009600087815260200190815260200160002060020180549050811015610e0c57600760009054906101000a900460ff1660ff16600960008881526020019081526020016000206003018281548110610d49577f4e487b7100000000000000000000000000000000000000000000000000000000600052603260045260246000fd5b90600052602060002090602091828204019190069054906101000a900460ff1660ff1614610df957610deb600960008881526020019081526020016000206003018281548110610dc2577f4e487b7100000000000000000000000000000000000000000000000000000000600052603260045260246000fd5b90600052602060002090602091828204019190069054906101000a900460ff1660ff1684610941565b82610df69190612a60565b91505b8080610e0490613052565b915050610cc7565b5060005b6009600087815260200190815260200160002060020180549050811015610fd457600760009054906101000a900460ff1660ff16600960008881526020019081526020016000206003018281548110610e92577f4e487b7100000000000000000000000000000000000000000000000000000000600052603260045260246000fd5b90600052602060002090602091828204019190069054906101000a900460ff1660ff1614610fc157610fbf600960008881526020019081526020016000206002018281548110610f0b577f4e487b7100000000000000000000000000000000000000000000000000000000600052603260045260246000fd5b9060005260206000200160009054906101000a900473ffffffffffffffffffffffffffffffffffffffff16610fba610fb3600960008b81526020019081526020016000206003018581548110610f8a577f4e487b7100000000000000000000000000000000000000000000000000000000600052603260045260246000fd5b90600052602060002090602091828204019190069054906101000a900460ff1660ff1687610941565b85886118ea565b6118c7565b505b8080610fcc90613052565b915050610e10565b505050505050565b6008548210611020576040517f08c379a00000000000000000000000000000000000000000000000000000000081526004016110179061289a565b60405180910390fd5b600a8160ff161115611067576040517f08c379a000000000000000000000000000000000000000000000000000000000815260040161105e906127ba565b60405180910390fd5b600015156009600084815260200190815260200160002060040160009054906101000a900460ff161515146110d1576040517f08c379a00000000000000000000000000000000000000000000000000000000081526004016110c89061287a565b60405180910390fd5b60005b60096000848152602001908152602001600020600201805490508110156112c0573373ffffffffffffffffffffffffffffffffffffffff1660096000858152602001908152602001600020600201828154811061115a577f4e487b7100000000000000000000000000000000000000000000000000000000600052603260045260246000fd5b9060005260206000200160009054906101000a900473ffffffffffffffffffffffffffffffffffffffff1673ffffffffffffffffffffffffffffffffffffffff161480156112295750600760009054906101000a900460ff1660ff16600960008581526020019081526020016000206003018281548110611204577f4e487b7100000000000000000000000000000000000000000000000000000000600052603260045260246000fd5b90600052602060002090602091828204019190069054906101000a900460ff1660ff16145b156112ad578160096000858152602001908152602001600020600301828154811061127d577f4e487b7100000000000000000000000000000000000000000000000000000000600052603260045260246000fd5b90600052602060002090602091828204019190066101000a81548160ff021916908360ff160217905550506112fc565b80806112b890613052565b9150506110d4565b506040517f08c379a00000000000000000000000000000000000000000000000000000000081526004016112f39061279a565b60405180910390fd5b5050565b611308611ae2565b73ffffffffffffffffffffffffffffffffffffffff166113266115dc565b73ffffffffffffffffffffffffffffffffffffffff161461137c576040517f08c379a0000000000000000000000000000000000000000000000000000000008152600401611373906128da565b60405180910390fd5b60085481106113c0576040517f08c379a00000000000000000000000000000000000000000000000000000000081526004016113b79061289a565b60405180910390fd5b60006009600083815260200190815260200160002060040160006101000a81548160ff02191690831515021790555050565b60008060008373ffffffffffffffffffffffffffffffffffffffff1673ffffffffffffffffffffffffffffffffffffffff168152602001908152602001600020549050919050565b611442611ae2565b73ffffffffffffffffffffffffffffffffffffffff166114606115dc565b73ffffffffffffffffffffffffffffffffffffffff16146114b6576040517f08c379a00000000000000000000000000000000000000000000000000000000081526004016114ad906128da565b60405180910390fd5b6114c06000611fc2565b565b60006729a2241af62c0000831161151d57670de0b6b3a76400008260646003600a876114ee9190612e16565b6114f89190612b20565b6115029190612b20565b61150c9190612e16565b6115169190612b20565b90506115d6565b676124fee993bc0000831161157d57670de0b6b3a76400008260646005670de0b6b3a76400008761154e9190612f46565b6115589190612e16565b6115629190612b20565b61156c9190612e16565b6115769190612b20565b90506115d6565b670de0b6b3a76400008260646003600a671bc16d674ec80000886115a19190612a60565b6115ab9190612e16565b6115b59190612b20565b6115bf9190612b20565b6115c99190612e16565b6115d39190612b20565b90505b92915050565b6000600560009054906101000a900473ffffffffffffffffffffffffffffffffffffffff16905090565b60606004805461161590613020565b80601f016020809104026020016040519081016040528092919081815260200182805461164190613020565b801561168e5780601f106116635761010080835404028352916020019161168e565b820191906000526020600020905b81548152906001019060200180831161167157829003601f168201915b5050505050905090565b6000806116a3611ae2565b905060006116b1828661190c565b9050838110156116f6576040517f08c379a00000000000000000000000000000000000000000000000000000000081526004016116ed9061295a565b60405180910390fd5b6117038286868403611aea565b60019250505092915050565b611717611ae2565b73ffffffffffffffffffffffffffffffffffffffff166117356115dc565b73ffffffffffffffffffffffffffffffffffffffff161461178b576040517f08c379a0000000000000000000000000000000000000000000000000000000008152600401611782906128da565b60405180910390fd5b611793612092565b82816000019073ffffffffffffffffffffffffffffffffffffffff16908173ffffffffffffffffffffffffffffffffffffffff16815250508181602001818152505060018160800190151590811515815250508060096000600854815260200190815260200160002060008201518160000160006101000a81548173ffffffffffffffffffffffffffffffffffffffff021916908373ffffffffffffffffffffffffffffffffffffffff1602179055506020820151816001015560408201518160020190805190602001906118699291906120d9565b506060820151816003019080519060200190611886929190612163565b5060808201518160040160006101000a81548160ff021916908315150217905550905050600860008154809291906118bd90613052565b9190505550505050565b6000806118d2611ae2565b90506118df818585611d41565b600191505092915050565b60008284836118f99190612e16565b6119039190612b20565b90509392505050565b6000600160008473ffffffffffffffffffffffffffffffffffffffff1673ffffffffffffffffffffffffffffffffffffffff16815260200190815260200160002060008373ffffffffffffffffffffffffffffffffffffffff1673ffffffffffffffffffffffffffffffffffffffff16815260200190815260200160002054905092915050565b60096020528060005260406000206000915090508060000160009054906101000a900473ffffffffffffffffffffffffffffffffffffffff16908060010154908060040160009054906101000a900460ff16905083565b6119f2611ae2565b73ffffffffffffffffffffffffffffffffffffffff16611a106115dc565b73ffffffffffffffffffffffffffffffffffffffff1614611a66576040517f08c379a0000000000000000000000000000000000000000000000000000000008152600401611a5d906128da565b60405180910390fd5b600073ffffffffffffffffffffffffffffffffffffffff168173ffffffffffffffffffffffffffffffffffffffff161415611ad6576040517f08c379a0000000000000000000000000000000000000000000000000000000008152600401611acd906127da565b60405180910390fd5b611adf81611fc2565b50565b600033905090565b600073ffffffffffffffffffffffffffffffffffffffff168373ffffffffffffffffffffffffffffffffffffffff161415611b5a576040517f08c379a0000000000000000000000000000000000000000000000000000000008152600401611b519061291a565b60405180910390fd5b600073ffffffffffffffffffffffffffffffffffffffff168273ffffffffffffffffffffffffffffffffffffffff161415611bca576040517f08c379a0000000000000000000000000000000000000000000000000000000008152600401611bc1906127fa565b60405180910390fd5b80600160008573ffffffffffffffffffffffffffffffffffffffff1673ffffffffffffffffffffffffffffffffffffffff16815260200190815260200160002060008473ffffffffffffffffffffffffffffffffffffffff1673ffffffffffffffffffffffffffffffffffffffff168152602001908152602001600020819055508173ffffffffffffffffffffffffffffffffffffffff168373ffffffffffffffffffffffffffffffffffffffff167f8c5be1e5ebec7d5bd14f71427d1e84f3dd0314c0f7b2291e5b200ac8c7c3b92583604051611ca8919061297a565b60405180910390a3505050565b6000611cc1848461190c565b90507fffffffffffffffffffffffffffffffffffffffffffffffffffffffffffffffff8114611d3b5781811015611d2d576040517f08c379a0000000000000000000000000000000000000000000000000000000008152600401611d249061283a565b60405180910390fd5b611d3a8484848403611aea565b5b50505050565b600073ffffffffffffffffffffffffffffffffffffffff168373ffffffffffffffffffffffffffffffffffffffff161415611db1576040517f08c379a0000000000000000000000000000000000000000000000000000000008152600401611da8906128fa565b60405180910390fd5b600073ffffffffffffffffffffffffffffffffffffffff168273ffffffffffffffffffffffffffffffffffffffff161415611e21576040517f08c379a0000000000000000000000000000000000000000000000000000000008152600401611e189061277a565b60405180910390fd5b611e2c838383612088565b60008060008573ffffffffffffffffffffffffffffffffffffffff1673ffffffffffffffffffffffffffffffffffffffff16815260200190815260200160002054905081811015611eb2576040517f08c379a0000000000000000000000000000000000000000000000000000000008152600401611ea99061285a565b60405180910390fd5b8181036000808673ffffffffffffffffffffffffffffffffffffffff1673ffffffffffffffffffffffffffffffffffffffff16815260200190815260200160002081905550816000808573ffffffffffffffffffffffffffffffffffffffff1673ffffffffffffffffffffffffffffffffffffffff1681526020019081526020016000206000828254611f459190612a60565b925050819055508273ffffffffffffffffffffffffffffffffffffffff168473ffffffffffffffffffffffffffffffffffffffff167fddf252ad1be2c89b69c2b068fc378daa952ba7f163c4a11628f55a4df523b3ef84604051611fa9919061297a565b60405180910390a3611fbc84848461208d565b50505050565b6000600560009054906101000a900473ffffffffffffffffffffffffffffffffffffffff16905081600560006101000a81548173ffffffffffffffffffffffffffffffffffffffff021916908373ffffffffffffffffffffffffffffffffffffffff1602179055508173ffffffffffffffffffffffffffffffffffffffff168173ffffffffffffffffffffffffffffffffffffffff167f8be0079c531659141344cd1fd0a4f28419497f9722a3daafe3b4186f6b6457e060405160405180910390a35050565b505050565b505050565b6040518060a00160405280600073ffffffffffffffffffffffffffffffffffffffff1681526020016000815260200160608152602001606081526020016000151581525090565b828054828255906000526020600020908101928215612152579160200282015b828111156121515782518260006101000a81548173ffffffffffffffffffffffffffffffffffffffff021916908373ffffffffffffffffffffffffffffffffffffffff160217905550916020019190600101906120f9565b5b50905061215f919061220a565b5090565b82805482825590600052602060002090601f016020900481019282156121f95791602002820160005b838211156121ca57835183826101000a81548160ff021916908360ff160217905550926020019260010160208160000104928301926001030261218c565b80156121f75782816101000a81549060ff02191690556001016020816000010492830192600103026121ca565b505b509050612206919061220a565b5090565b5b8082111561222357600081600090555060010161220b565b5090565b6000813590506122368161352c565b92915050565b60008135905061224b81613543565b92915050565b6000813590506122608161355a565b92915050565b60006020828403121561227857600080fd5b600061228684828501612227565b91505092915050565b600080604083850312156122a257600080fd5b60006122b085828601612227565b92505060206122c185828601612227565b9150509250929050565b6000806000606084860312156122e057600080fd5b60006122ee86828701612227565b93505060206122ff86828701612227565b92505060406123108682870161223c565b9150509250925092565b6000806040838503121561232d57600080fd5b600061233b85828601612227565b925050602061234c8582860161223c565b9150509250929050565b60006020828403121561236857600080fd5b60006123768482850161223c565b91505092915050565b6000806040838503121561239257600080fd5b60006123a08582860161223c565b92505060206123b18582860161223c565b9150509250929050565b6000806000606084860312156123d057600080fd5b60006123de8682870161223c565b93505060206123ef8682870161223c565b92505060406124008682870161223c565b9150509250925092565b6000806040838503121561241d57600080fd5b600061242b8582860161223c565b925050602061243c85828601612251565b9150509250929050565b61244f81612f7a565b82525050565b61245e81612f8c565b82525050565b600061246f826129b0565b61247981856129bb565b9350612489818560208601612fed565b61249281613128565b840191505092915050565b60006124aa6023836129bb565b91506124b582613146565b604082019050919050565b60006124cd6037836129bb565b91506124d882613195565b604082019050919050565b60006124f0600d836129bb565b91506124fb826131e4565b602082019050919050565b60006125136026836129bb565b915061251e8261320d565b604082019050919050565b60006125366022836129bb565b91506125418261325c565b604082019050919050565b60006125596027836129bb565b9150612564826132ab565b604082019050919050565b600061257c601d836129bb565b9150612587826132fa565b602082019050919050565b600061259f6026836129bb565b91506125aa82613323565b604082019050919050565b60006125c2601a836129bb565b91506125cd82613372565b602082019050919050565b60006125e56011836129bb565b91506125f08261339b565b602082019050919050565b60006126086014836129bb565b9150612613826133c4565b602082019050919050565b600061262b6020836129bb565b9150612636826133ed565b602082019050919050565b600061264e6025836129bb565b915061265982613416565b604082019050919050565b60006126716024836129bb565b915061267c82613465565b604082019050919050565b6000612694601f836129bb565b915061269f826134b4565b602082019050919050565b60006126b76025836129bb565b91506126c2826134dd565b604082019050919050565b6126d681612fc2565b82525050565b6126e581612fe0565b82525050565b60006020820190506127006000830184612446565b92915050565b600060608201905061271b6000830186612446565b61272860208301856126cd565b6127356040830184612455565b949350505050565b60006020820190506127526000830184612455565b92915050565b600060208201905081810360008301526127728184612464565b905092915050565b600060208201905081810360008301526127938161249d565b9050919050565b600060208201905081810360008301526127b3816124c0565b9050919050565b600060208201905081810360008301526127d3816124e3565b9050919050565b600060208201905081810360008301526127f381612506565b9050919050565b6000602082019050818103600083015261281381612529565b9050919050565b600060208201905081810360008301526128338161254c565b9050919050565b600060208201905081810360008301526128538161256f565b9050919050565b6000602082019050818103600083015261287381612592565b9050919050565b60006020820190508181036000830152612893816125b5565b9050919050565b600060208201905081810360008301526128b3816125d8565b9050919050565b600060208201905081810360008301526128d3816125fb565b9050919050565b600060208201905081810360008301526128f38161261e565b9050919050565b6000602082019050818103600083015261291381612641565b9050919050565b6000602082019050818103600083015261293381612664565b9050919050565b6000602082019050818103600083015261295381612687565b9050919050565b60006020820190508181036000830152612973816126aa565b9050919050565b600060208201905061298f60008301846126cd565b92915050565b60006020820190506129aa60008301846126dc565b92915050565b600081519050919050565b600082825260208201905092915050565b60006129d782612f98565b91506129e283612f98565b9250817f7fffffffffffffffffffffffffffffffffffffffffffffffffffffffffffffff03831360008312151615612a1d57612a1c61309b565b5b817f8000000000000000000000000000000000000000000000000000000000000000038312600083121615612a5557612a5461309b565b5b828201905092915050565b6000612a6b82612fc2565b9150612a7683612fc2565b9250827fffffffffffffffffffffffffffffffffffffffffffffffffffffffffffffffff03821115612aab57612aaa61309b565b5b828201905092915050565b6000612ac182612f98565b9150612acc83612f98565b925082612adc57612adb6130ca565b5b600160000383147f800000000000000000000000000000000000000000000000000000000000000083141615612b1557612b1461309b565b5b828205905092915050565b6000612b2b82612fc2565b9150612b3683612fc2565b925082612b4657612b456130ca565b5b828204905092915050565b6000808291508390505b6001851115612b9b57808604811115612b7757612b7661309b565b5b6001851615612b865780820291505b8081029050612b9485613139565b9450612b5b565b94509492505050565b60008260008114612bbc5760018114612bc657612bcf565b6001915050612c8b565b82915050612c8b565b5081612bde5760009050612c8b565b600190506000821360018114612bfb5760008114612c1357612c27565b828604831115612c0e57612c0d61309b565b5b612c27565b828605831215612c2657612c2561309b565b5b5b506001831615612c35578190505b8182029150612c4383613139565b9250612c5185848484612b51565b925090508185048111600082131615612c6d57612c6c61309b565b5b8184058112600082121615612c8557612c8461309b565b5b81810290505b949350505050565b6000612c9e82612f98565b9150612ca983612fe0565b9250612cf77f7fffffffffffffffffffffffffffffffffffffffffffffffffffffffffffffff7f80000000000000000000000000000000000000000000000000000000000000008585612ba4565b905092915050565b6000612d0a82612f98565b9150612d1583612f98565b9250827f7fffffffffffffffffffffffffffffffffffffffffffffffffffffffffffffff0482116000841360008413161615612d5457612d5361309b565b5b817f80000000000000000000000000000000000000000000000000000000000000000583126000841260008413161615612d9157612d9061309b565b5b827f80000000000000000000000000000000000000000000000000000000000000000582126000841360008412161615612dce57612dcd61309b565b5b827f7fffffffffffffffffffffffffffffffffffffffffffffffffffffffffffffff0582126000841260008412161615612e0b57612e0a61309b565b5b828202905092915050565b6000612e2182612fc2565b9150612e2c83612fc2565b9250817fffffffffffffffffffffffffffffffffffffffffffffffffffffffffffffffff0483118215151615612e6557612e6461309b565b5b828202905092915050565b6000612e7b82612fcc565b9150612e8683612fcc565b92508167ffffffffffffffff0483118215151615612ea757612ea661309b565b5b828202905092915050565b6000612ebd82612f98565b9150612ec883612f98565b9250827f800000000000000000000000000000000000000000000000000000000000000001821260008412151615612f0357612f0261309b565b5b827f7fffffffffffffffffffffffffffffffffffffffffffffffffffffffffffffff018213600084121615612f3b57612f3a61309b565b5b828203905092915050565b6000612f5182612fc2565b9150612f5c83612fc2565b925082821015612f6f57612f6e61309b565b5b828203905092915050565b6000612f8582612fa2565b9050919050565b60008115159050919050565b6000819050919050565b600073ffffffffffffffffffffffffffffffffffffffff82169050919050565b6000819050919050565b600067ffffffffffffffff82169050919050565b600060ff82169050919050565b60005b8381101561300b578082015181840152602081019050612ff0565b8381111561301a576000848401525b50505050565b6000600282049050600182168061303857607f821691505b6020821081141561304c5761304b6130f9565b5b50919050565b600061305d82612fc2565b91507fffffffffffffffffffffffffffffffffffffffffffffffffffffffffffffffff8214156130905761308f61309b565b5b600182019050919050565b7f4e487b7100000000000000000000000000000000000000000000000000000000600052601160045260246000fd5b7f4e487b7100000000000000000000000000000000000000000000000000000000600052601260045260246000fd5b7f4e487b7100000000000000000000000000000000000000000000000000000000600052602260045260246000fd5b6000601f19601f8301169050919050565b60008160011c9050919050565b7f45524332303a207472616e7366657220746f20746865207a65726f206164647260008201527f6573730000000000000000000000000000000000000000000000000000000000602082015250565b7f596f7520646f6e277420686176652074686520726967687420746f20766f746560008201527f202f206f7220796f7520616c726561647920766f746564000000000000000000602082015250565b7f496e76616c69642073636f726500000000000000000000000000000000000000600082015250565b7f4f776e61626c653a206e6577206f776e657220697320746865207a65726f206160008201527f6464726573730000000000000000000000000000000000000000000000000000602082015250565b7f45524332303a20617070726f766520746f20746865207a65726f20616464726560008201527f7373000000000000000000000000000000000000000000000000000000000000602082015250565b7f4e6f7420656e6f7567682062616c616e636520746f207061792074686520656e60008201527f7472792066656500000000000000000000000000000000000000000000000000602082015250565b7f45524332303a20696e73756666696369656e7420616c6c6f77616e6365000000600082015250565b7f45524332303a207472616e7366657220616d6f756e742065786365656473206260008201527f616c616e63650000000000000000000000000000000000000000000000000000602082015250565b7f546865206c6573736f6e206973206e6f74206f76657220796574000000000000600082015250565b7f496e76616c6964206c6573736f6e206964000000000000000000000000000000600082015250565b7f546865206c6573736f6e20697320636c6f736564000000000000000000000000600082015250565b7f4f776e61626c653a2063616c6c6572206973206e6f7420746865206f776e6572600082015250565b7f45524332303a207472616e736665722066726f6d20746865207a65726f20616460008201527f6472657373000000000000000000000000000000000000000000000000000000602082015250565b7f45524332303a20617070726f76652066726f6d20746865207a65726f2061646460008201527f7265737300000000000000000000000000000000000000000000000000000000602082015250565b7f416c72656164792070617274696369706174656420746865206c6573736f6e00600082015250565b7f45524332303a2064656372656173656420616c6c6f77616e63652062656c6f7760008201527f207a65726f000000000000000000000000000000000000000000000000000000602082015250565b61353581612f7a565b811461354057600080fd5b50565b61354c81612fc2565b811461355757600080fd5b50565b61356381612fe0565b811461356e57600080fd5b5056fea2646970667358221220dfae779545a13fd4895251d425d923379f94e1510f5579718d64ddcd2382946064736f6c63430008030033",
  "linkReferences": {},
  "deployedLinkReferences": {}
}