{
  "_format": "hh-sol-artifact-1",
  "contractName": "BayStudentDao",
  "sourceName": "contracts/BayStudentDao.sol",
  "abi": [
    {
      "anonymous": false,
      "inputs": [
        {
          "indexed": true,
          "internalType": "address",
          "name": "owner",
          "type": "address"
        },
        {
          "indexed": true,
          "internalType": "address",
          "name": "spender",
          "type": "address"
        },
        {
          "indexed": false,
          "internalType": "uint256",
          "name": "value",
          "type": "uint256"
        }
      ],
      "name": "Approval",
      "type": "event"
    },
    {
      "anonymous": false,
      "inputs": [
        {
          "indexed": true,
          "internalType": "address",
          "name": "previousOwner",
          "type": "address"
        },
        {
          "indexed": true,
          "internalType": "address",
          "name": "newOwner",
          "type": "address"
        }
      ],
      "name": "OwnershipTransferred",
      "type": "event"
    },
    {
      "anonymous": false,
      "inputs": [
        {
          "indexed": true,
          "internalType": "address",
          "name": "from",
          "type": "address"
        },
        {
          "indexed": true,
          "internalType": "address",
          "name": "to",
          "type": "address"
        },
        {
          "indexed": false,
          "internalType": "uint256",
          "name": "value",
          "type": "uint256"
        }
      ],
      "name": "Transfer",
      "type": "event"
    },
    {
      "inputs": [],
      "name": "INITIAL_SUPPLY",
      "outputs": [
        {
          "internalType": "uint256",
          "name": "",
          "type": "uint256"
        }
      ],
      "stateMutability": "view",
      "type": "function"
    },
    {
      "inputs": [
        {
          "internalType": "address",
          "name": "owner",
          "type": "address"
        },
        {
          "internalType": "address",
          "name": "spender",
          "type": "address"
        }
      ],
      "name": "allowance",
      "outputs": [
        {
          "internalType": "uint256",
          "name": "",
          "type": "uint256"
        }
      ],
      "stateMutability": "view",
      "type": "function"
    },
    {
      "inputs": [
        {
          "internalType": "address",
          "name": "spender",
          "type": "address"
        },
        {
          "internalType": "uint256",
          "name": "amount",
          "type": "uint256"
        }
      ],
      "name": "approve",
      "outputs": [
        {
          "internalType": "bool",
          "name": "",
          "type": "bool"
        }
      ],
      "stateMutability": "nonpayable",
      "type": "function"
    },
    {
      "inputs": [
        {
          "internalType": "address",
          "name": "account",
          "type": "address"
        }
      ],
      "name": "balanceOf",
      "outputs": [
        {
          "internalType": "uint256",
          "name": "",
          "type": "uint256"
        }
      ],
      "stateMutability": "view",
      "type": "function"
    },
    {
      "inputs": [
        {
          "internalType": "uint256",
          "name": "_mean_score",
          "type": "uint256"
        },
        {
          "internalType": "uint256",
          "name": "_total_entry_fee",
          "type": "uint256"
        }
      ],
      "name": "calculate_incentive_for_tutor",
      "outputs": [
        {
          "internalType": "uint256",
          "name": "",
          "type": "uint256"
        }
      ],
      "stateMutability": "pure",
      "type": "function"
    },
    {
      "inputs": [
        {
          "internalType": "uint256",
          "name": "share",
          "type": "uint256"
        },
        {
          "internalType": "uint256",
          "name": "total_share",
          "type": "uint256"
        },
        {
          "internalType": "uint256",
          "name": "_total_entry_fee",
          "type": "uint256"
        }
      ],
      "name": "calculate_incentive_for_voter",
      "outputs": [
        {
          "internalType": "uint256",
          "name": "",
          "type": "uint256"
        }
      ],
      "stateMutability": "pure",
      "type": "function"
    },
    {
      "inputs": [
        {
          "internalType": "uint256",
          "name": "_vote_score",
          "type": "uint256"
        },
        {
          "internalType": "uint256",
          "name": "_mean_score",
          "type": "uint256"
        }
      ],
      "name": "calculate_share_for_voter",
      "outputs": [
        {
          "internalType": "uint256",
          "name": "",
          "type": "uint256"
        }
      ],
      "stateMutability": "pure",
      "type": "function"
    },
    {
      "inputs": [
        {
          "internalType": "uint256",
          "name": "_lesson_id",
          "type": "uint256"
        }
      ],
      "name": "close_lesson",
      "outputs": [],
      "stateMutability": "nonpayable",
      "type": "function"
    },
    {
      "inputs": [
        {
          "internalType": "address",
          "name": "_tutor_wallet_address",
          "type": "address"
        },
        {
          "internalType": "uint256",
          "name": "_entry_fee",
          "type": "uint256"
        }
      ],
      "name": "create_lesson",
      "outputs": [],
      "stateMutability": "nonpayable",
      "type": "function"
    },
    {
      "inputs": [],
      "name": "decimals",
      "outputs": [
        {
          "internalType": "uint8",
          "name": "",
          "type": "uint8"
        }
      ],
      "stateMutability": "view",
      "type": "function"
    },
    {
      "inputs": [
        {
          "internalType": "address",
          "name": "spender",
          "type": "address"
        },
        {
          "internalType": "uint256",
          "name": "subtractedValue",
          "type": "uint256"
        }
      ],
      "name": "decreaseAllowance",
      "outputs": [
        {
          "internalType": "bool",
          "name": "",
          "type": "bool"
        }
      ],
      "stateMutability": "nonpayable",
      "type": "function"
    },
    {
      "inputs": [
        {
          "internalType": "uint256",
          "name": "_lesson_id",
          "type": "uint256"
        }
      ],
      "name": "distribute_incentives",
      "outputs": [],
      "stateMutability": "nonpayable",
      "type": "function"
    },
    {
      "inputs": [
        {
          "internalType": "address",
          "name": "spender",
          "type": "address"
        },
        {
          "internalType": "uint256",
          "name": "addedValue",
          "type": "uint256"
        }
      ],
      "name": "increaseAllowance",
      "outputs": [
        {
          "internalType": "bool",
          "name": "",
          "type": "bool"
        }
      ],
      "stateMutability": "nonpayable",
      "type": "function"
    },
    {
      "inputs": [
        {
          "internalType": "uint256",
          "name": "",
          "type": "uint256"
        }
      ],
      "name": "lessons",
      "outputs": [
        {
          "internalType": "address",
          "name": "tutor_wallet_address",
          "type": "address"
        },
        {
          "internalType": "uint256",
          "name": "entry_fee",
          "type": "uint256"
        },
        {
          "internalType": "bool",
          "name": "status",
          "type": "bool"
        },
        {
          "internalType": "uint8",
          "name": "count",
          "type": "uint8"
        }
      ],
      "stateMutability": "view",
      "type": "function"
    },
    {
      "inputs": [],
      "name": "name",
      "outputs": [
        {
          "internalType": "string",
          "name": "",
          "type": "string"
        }
      ],
      "stateMutability": "view",
      "type": "function"
    },
    {
      "inputs": [],
      "name": "owner",
      "outputs": [
        {
          "internalType": "address",
          "name": "",
          "type": "address"
        }
      ],
      "stateMutability": "view",
      "type": "function"
    },
    {
      "inputs": [
        {
          "internalType": "uint256",
          "name": "_lesson_id",
          "type": "uint256"
        }
      ],
      "name": "participate_lesson",
      "outputs": [],
      "stateMutability": "nonpayable",
      "type": "function"
    },
    {
      "inputs": [],
      "name": "renounceOwnership",
      "outputs": [],
      "stateMutability": "nonpayable",
      "type": "function"
    },
    {
      "inputs": [],
      "name": "symbol",
      "outputs": [
        {
          "internalType": "string",
          "name": "",
          "type": "string"
        }
      ],
      "stateMutability": "view",
      "type": "function"
    },
    {
      "inputs": [],
      "name": "totalSupply",
      "outputs": [
        {
          "internalType": "uint256",
          "name": "",
          "type": "uint256"
        }
      ],
      "stateMutability": "view",
      "type": "function"
    },
    {
      "inputs": [
        {
          "internalType": "address",
          "name": "to",
          "type": "address"
        },
        {
          "internalType": "uint256",
          "name": "amount",
          "type": "uint256"
        }
      ],
      "name": "transfer",
      "outputs": [
        {
          "internalType": "bool",
          "name": "",
          "type": "bool"
        }
      ],
      "stateMutability": "nonpayable",
      "type": "function"
    },
    {
      "inputs": [
        {
          "internalType": "address",
          "name": "from",
          "type": "address"
        },
        {
          "internalType": "address",
          "name": "to",
          "type": "address"
        },
        {
          "internalType": "uint256",
          "name": "amount",
          "type": "uint256"
        }
      ],
      "name": "transferFrom",
      "outputs": [
        {
          "internalType": "bool",
          "name": "",
          "type": "bool"
        }
      ],
      "stateMutability": "nonpayable",
      "type": "function"
    },
    {
      "inputs": [
        {
          "internalType": "address",
          "name": "newOwner",
          "type": "address"
        }
      ],
      "name": "transferOwnership",
      "outputs": [],
      "stateMutability": "nonpayable",
      "type": "function"
    },
    {
      "inputs": [
        {
          "internalType": "uint256",
          "name": "_lesson_id",
          "type": "uint256"
        },
        {
          "internalType": "uint8",
          "name": "_score",
          "type": "uint8"
        }
      ],
      "name": "vote_lesson",
      "outputs": [],
      "stateMutability": "nonpayable",
      "type": "function"
    }
  ],
  "bytecode": "0x60806040526a52b7d2dcc80cd2e400000060065560ff600760006101000a81548160ff021916908360ff16021790555060006076553480156200004157600080fd5b506040518060400160405280600981526020017f42415920546f6b656e00000000000000000000000000000000000000000000008152506040518060400160405280600481526020017f42415954000000000000000000000000000000000000000000000000000000008152508160039080519060200190620000c69291906200036d565b508060049080519060200190620000df9291906200036d565b50505062000102620000f66200011c60201b60201c565b6200012460201b60201c565b6200011633600654620001ea60201b60201c565b620005bb565b600033905090565b6000600560009054906101000a900473ffffffffffffffffffffffffffffffffffffffff16905081600560006101000a81548173ffffffffffffffffffffffffffffffffffffffff021916908373ffffffffffffffffffffffffffffffffffffffff1602179055508173ffffffffffffffffffffffffffffffffffffffff168173ffffffffffffffffffffffffffffffffffffffff167f8be0079c531659141344cd1fd0a4f28419497f9722a3daafe3b4186f6b6457e060405160405180910390a35050565b600073ffffffffffffffffffffffffffffffffffffffff168273ffffffffffffffffffffffffffffffffffffffff1614156200025d576040517f08c379a0000000000000000000000000000000000000000000000000000000008152600401620002549062000470565b60405180910390fd5b62000271600083836200036360201b60201c565b8060026000828254620002859190620004c0565b92505081905550806000808473ffffffffffffffffffffffffffffffffffffffff1673ffffffffffffffffffffffffffffffffffffffff1681526020019081526020016000206000828254620002dc9190620004c0565b925050819055508173ffffffffffffffffffffffffffffffffffffffff16600073ffffffffffffffffffffffffffffffffffffffff167fddf252ad1be2c89b69c2b068fc378daa952ba7f163c4a11628f55a4df523b3ef8360405162000343919062000492565b60405180910390a36200035f600083836200036860201b60201c565b5050565b505050565b505050565b8280546200037b9062000527565b90600052602060002090601f0160209004810192826200039f5760008555620003eb565b82601f10620003ba57805160ff1916838001178555620003eb565b82800160010185558215620003eb579182015b82811115620003ea578251825591602001919060010190620003cd565b5b509050620003fa9190620003fe565b5090565b5b8082111562000419576000816000905550600101620003ff565b5090565b60006200042c601f83620004af565b91507f45524332303a206d696e7420746f20746865207a65726f2061646472657373006000830152602082019050919050565b6200046a816200051d565b82525050565b600060208201905081810360008301526200048b816200041d565b9050919050565b6000602082019050620004a960008301846200045f565b92915050565b600082825260208201905092915050565b6000620004cd826200051d565b9150620004da836200051d565b9250827fffffffffffffffffffffffffffffffffffffffffffffffffffffffffffffffff038211156200051257620005116200055d565b5b828201905092915050565b6000819050919050565b600060028204905060018216806200054057607f821691505b602082108114156200055757620005566200058c565b5b50919050565b7f4e487b7100000000000000000000000000000000000000000000000000000000600052601160045260246000fd5b7f4e487b7100000000000000000000000000000000000000000000000000000000600052602260045260246000fd5b61367380620005cb6000396000f3fe608060405234801561001057600080fd5b50600436106101585760003560e01c806370a08231116100c3578063a63fbf5b1161007c578063a63fbf5b146103db578063a9059cbb146103f7578063acdba08814610427578063dd62ed3e14610457578063e1d1a84114610487578063f2fde38b146104ba57610158565b806370a0823114610305578063715018a6146103355780637aef39ac1461033f5780638da5cb5b1461036f57806395d89b411461038d578063a457c2d7146103ab57610158565b8063395093511161011557806339509351146102355780633cb7fde214610265578063418e2a5f146102815780634e33a2a7146102b157806351d3628e146102cd5780635fef767a146102e957610158565b806306fdde031461015d578063095ea7b31461017b57806318160ddd146101ab57806323b872dd146101c95780632ff2e9dc146101f9578063313ce56714610217575b600080fd5b6101656104d6565b6040516101729190612be0565b60405180910390f35b6101956004803603810190610190919061246e565b610568565b6040516101a29190612bc5565b60405180910390f35b6101b361058b565b6040516101c09190612e02565b60405180910390f35b6101e360048036038101906101de919061241f565b610595565b6040516101f09190612bc5565b60405180910390f35b6102016105c4565b60405161020e9190612e02565b60405180910390f35b61021f6105ca565b60405161022c9190612e1d565b60405180910390f35b61024f600480360381019061024a919061246e565b6105d3565b60405161025c9190612bc5565b60405180910390f35b61027f600480360381019061027a91906124aa565b61060a565b005b61029b600480360381019061029691906124d3565b610a7f565b6040516102a89190612e02565b60405180910390f35b6102cb60048036038101906102c691906124aa565b610b31565b005b6102e760048036038101906102e2919061255e565b61121c565b005b61030360048036038101906102fe91906124aa565b611599565b005b61031f600480360381019061031a91906123ba565b61168b565b60405161032c9190612e02565b60405180910390f35b61033d6116d3565b005b610359600480360381019061035491906124d3565b61175b565b6040516103669190612e02565b60405180910390f35b610377611875565b6040516103849190612b65565b60405180910390f35b61039561189f565b6040516103a29190612be0565b60405180910390f35b6103c560048036038101906103c0919061246e565b611931565b6040516103d29190612bc5565b60405180910390f35b6103f560048036038101906103f0919061246e565b6119a8565b005b610411600480360381019061040c919061246e565b611b5a565b60405161041e9190612bc5565b60405180910390f35b610441600480360381019061043c919061250f565b611b7d565b60405161044e9190612e02565b60405180910390f35b610471600480360381019061046c91906123e3565b611b9f565b60405161047e9190612e02565b60405180910390f35b6104a1600480360381019061049c91906124aa565b611c26565b6040516104b19493929190612b80565b60405180910390f35b6104d460048036038101906104cf91906123ba565b611c90565b005b6060600380546104e5906134a8565b80601f0160208091040260200160405190810160405280929190818152602001828054610511906134a8565b801561055e5780601f106105335761010080835404028352916020019161055e565b820191906000526020600020905b81548152906001019060200180831161054157829003601f168201915b5050505050905090565b600080610573611d88565b9050610580818585611d90565b600191505092915050565b6000600254905090565b6000806105a0611d88565b90506105ad858285611f5b565b6105b8858585611fe7565b60019150509392505050565b60065481565b60006012905090565b6000806105de611d88565b90506105ff8185856105f08589611b9f565b6105fa9190612ee8565b611d90565b600191505092915050565b607654811061064e576040517f08c379a000000000000000000000000000000000000000000000000000000000815260040161064590612d22565b60405180910390fd5b600115156077600083815260200190815260200160002060020160009054906101000a900460ff161515146106b8576040517f08c379a00000000000000000000000000000000000000000000000000000000081526004016106af90612d42565b60405180910390fd5b60776000828152602001908152602001600020600101546106d83361168b565b11610718576040517f08c379a000000000000000000000000000000000000000000000000000000000815260040161070f90612ca2565b60405180910390fd5b60005b6077600083815260200190815260200160002060020160019054906101000a900460ff1660ff16811015610862573373ffffffffffffffffffffffffffffffffffffffff16600883600a811061079a577f4e487b7100000000000000000000000000000000000000000000000000000000600052603260045260246000fd5b600a020182600a81106107d6577f4e487b7100000000000000000000000000000000000000000000000000000000600052603260045260246000fd5b0160009054906101000a900473ffffffffffffffffffffffffffffffffffffffff1673ffffffffffffffffffffffffffffffffffffffff16141561084f576040517f08c379a000000000000000000000000000000000000000000000000000000000815260040161084690612dc2565b60405180910390fd5b808061085a906134da565b91505061071b565b5061088a61086e611875565b6077600084815260200190815260200160002060010154611b5a565b5033600882600a81106108c6577f4e487b7100000000000000000000000000000000000000000000000000000000600052603260045260246000fd5b600a02016077600084815260200190815260200160002060020160019054906101000a900460ff1660ff16600a8110610928577f4e487b7100000000000000000000000000000000000000000000000000000000600052603260045260246000fd5b0160006101000a81548173ffffffffffffffffffffffffffffffffffffffff021916908373ffffffffffffffffffffffffffffffffffffffff160217905550600760009054906101000a900460ff16606c82600a81106109b1577f4e487b7100000000000000000000000000000000000000000000000000000000600052603260045260246000fd5b016077600084815260200190815260200160002060020160019054906101000a900460ff1660ff16600a8110610a10577f4e487b7100000000000000000000000000000000000000000000000000000000600052603260045260246000fd5b602091828204019190066101000a81548160ff021916908360ff16021790555060776000828152602001908152602001600020600201600181819054906101000a900460ff1680929190610a6390613523565b91906101000a81548160ff021916908360ff1602179055505050565b60008082670de0b6b3a764000085610a97919061329e565b610aa1919061333a565b90506000670b1a2bc2ec500000600a7ffffffffffffffffffffffffffffffffffffffffffffffffffffffffffffffffa670de0b6b3a7640000600286610ae7919061311b565b610af19190612f3e565b610afb9190613187565b610b059190612f3e565b610b0f9190612e54565b90506000811315610b24578092505050610b2b565b6000925050505b92915050565b610b39611d88565b73ffffffffffffffffffffffffffffffffffffffff16610b57611875565b73ffffffffffffffffffffffffffffffffffffffff1614610bad576040517f08c379a0000000000000000000000000000000000000000000000000000000008152600401610ba490612d62565b60405180910390fd5b6076548110610bf1576040517f08c379a0000000000000000000000000000000000000000000000000000000008152600401610be890612d22565b60405180910390fd5b6000805b6077600084815260200190815260200160002060020160019054906101000a900460ff1660ff16811015610d9157600760009054906101000a900460ff1660ff16606c84600a8110610c70577f4e487b7100000000000000000000000000000000000000000000000000000000600052603260045260246000fd5b0182600a8110610ca9577f4e487b7100000000000000000000000000000000000000000000000000000000600052603260045260246000fd5b602091828204019190069054906101000a900460ff1660ff1614610d7e57670de0b6b3a7640000606c84600a8110610d0a577f4e487b7100000000000000000000000000000000000000000000000000000000600052603260045260246000fd5b0182600a8110610d43577f4e487b7100000000000000000000000000000000000000000000000000000000600052603260045260246000fd5b602091828204019190069054906101000a900460ff1660ff16610d6691906132f8565b67ffffffffffffffff1682610d7b9190612ee8565b91505b8080610d89906134da565b915050610bf5565b50600060776000848152602001908152602001600020600101546077600085815260200190815260200160002060020160019054906101000a900460ff1660ff16610ddc919061329e565b905060006077600085815260200190815260200160002060020160019054906101000a900460ff1660ff1683610e129190612fa8565b9050610e5d6077600086815260200190815260200160002060000160009054906101000a900473ffffffffffffffffffffffffffffffffffffffff16610e58838561175b565b611b5a565b506000805b6077600087815260200190815260200160002060020160019054906101000a900460ff1660ff16811015610fea57600760009054906101000a900460ff1660ff16606c87600a8110610edd577f4e487b7100000000000000000000000000000000000000000000000000000000600052603260045260246000fd5b0182600a8110610f16577f4e487b7100000000000000000000000000000000000000000000000000000000600052603260045260246000fd5b602091828204019190069054906101000a900460ff1660ff1614610fd757610fc9606c87600a8110610f71577f4e487b7100000000000000000000000000000000000000000000000000000000600052603260045260246000fd5b0182600a8110610faa577f4e487b7100000000000000000000000000000000000000000000000000000000600052603260045260246000fd5b602091828204019190069054906101000a900460ff1660ff1684610a7f565b82610fd49190612ee8565b91505b8080610fe2906134da565b915050610e62565b5060005b6077600087815260200190815260200160002060020160019054906101000a900460ff1660ff1681101561121457600760009054906101000a900460ff1660ff16606c87600a8110611069577f4e487b7100000000000000000000000000000000000000000000000000000000600052603260045260246000fd5b0182600a81106110a2577f4e487b7100000000000000000000000000000000000000000000000000000000600052603260045260246000fd5b602091828204019190069054906101000a900460ff1660ff1614611201576111ff600887600a81106110fd577f4e487b7100000000000000000000000000000000000000000000000000000000600052603260045260246000fd5b600a020182600a8110611139577f4e487b7100000000000000000000000000000000000000000000000000000000600052603260045260246000fd5b0160009054906101000a900473ffffffffffffffffffffffffffffffffffffffff166111fa6111f3606c8a600a811061119b577f4e487b7100000000000000000000000000000000000000000000000000000000600052603260045260246000fd5b0185600a81106111d4577f4e487b7100000000000000000000000000000000000000000000000000000000600052603260045260246000fd5b602091828204019190069054906101000a900460ff1660ff1687610a7f565b8588611b7d565b611b5a565b505b808061120c906134da565b915050610fee565b505050505050565b6076548210611260576040517f08c379a000000000000000000000000000000000000000000000000000000000815260040161125790612d22565b60405180910390fd5b600a8160ff1611156112a7576040517f08c379a000000000000000000000000000000000000000000000000000000000815260040161129e90612c42565b60405180910390fd5b600015156077600084815260200190815260200160002060020160009054906101000a900460ff16151514611311576040517f08c379a000000000000000000000000000000000000000000000000000000000815260040161130890612d02565b60405180910390fd5b60005b6077600084815260200190815260200160002060020160019054906101000a900460ff1660ff1681101561155d573373ffffffffffffffffffffffffffffffffffffffff16600884600a8110611393577f4e487b7100000000000000000000000000000000000000000000000000000000600052603260045260246000fd5b600a020182600a81106113cf577f4e487b7100000000000000000000000000000000000000000000000000000000600052603260045260246000fd5b0160009054906101000a900473ffffffffffffffffffffffffffffffffffffffff1673ffffffffffffffffffffffffffffffffffffffff161480156114b05750600760009054906101000a900460ff1660ff16606c84600a811061145c577f4e487b7100000000000000000000000000000000000000000000000000000000600052603260045260246000fd5b0182600a8110611495577f4e487b7100000000000000000000000000000000000000000000000000000000600052603260045260246000fd5b602091828204019190069054906101000a900460ff1660ff16145b1561154a5781606c84600a81106114f0577f4e487b7100000000000000000000000000000000000000000000000000000000600052603260045260246000fd5b0182600a8110611529577f4e487b7100000000000000000000000000000000000000000000000000000000600052603260045260246000fd5b602091828204019190066101000a81548160ff021916908360ff1602179055505b8080611555906134da565b915050611314565b506040517f08c379a000000000000000000000000000000000000000000000000000000000815260040161159090612c22565b60405180910390fd5b6115a1611d88565b73ffffffffffffffffffffffffffffffffffffffff166115bf611875565b73ffffffffffffffffffffffffffffffffffffffff1614611615576040517f08c379a000000000000000000000000000000000000000000000000000000000815260040161160c90612d62565b60405180910390fd5b6076548110611659576040517f08c379a000000000000000000000000000000000000000000000000000000000815260040161165090612d22565b60405180910390fd5b60006077600083815260200190815260200160002060020160006101000a81548160ff02191690831515021790555050565b60008060008373ffffffffffffffffffffffffffffffffffffffff1673ffffffffffffffffffffffffffffffffffffffff168152602001908152602001600020549050919050565b6116db611d88565b73ffffffffffffffffffffffffffffffffffffffff166116f9611875565b73ffffffffffffffffffffffffffffffffffffffff161461174f576040517f08c379a000000000000000000000000000000000000000000000000000000000815260040161174690612d62565b60405180910390fd5b6117596000612268565b565b60006729a2241af62c000083116117b657670de0b6b3a76400008260646003600a87611787919061329e565b6117919190612fa8565b61179b9190612fa8565b6117a5919061329e565b6117af9190612fa8565b905061186f565b676124fee993bc0000831161181657670de0b6b3a76400008260646005670de0b6b3a7640000876117e791906133ce565b6117f1919061329e565b6117fb9190612fa8565b611805919061329e565b61180f9190612fa8565b905061186f565b670de0b6b3a76400008260646003600a671bc16d674ec800008861183a9190612ee8565b611844919061329e565b61184e9190612fa8565b6118589190612fa8565b611862919061329e565b61186c9190612fa8565b90505b92915050565b6000600560009054906101000a900473ffffffffffffffffffffffffffffffffffffffff16905090565b6060600480546118ae906134a8565b80601f01602080910402602001604051908101604052809291908181526020018280546118da906134a8565b80156119275780601f106118fc57610100808354040283529160200191611927565b820191906000526020600020905b81548152906001019060200180831161190a57829003601f168201915b5050505050905090565b60008061193c611d88565b9050600061194a8286611b9f565b90508381101561198f576040517f08c379a000000000000000000000000000000000000000000000000000000000815260040161198690612de2565b60405180910390fd5b61199c8286868403611d90565b60019250505092915050565b6119b0611d88565b73ffffffffffffffffffffffffffffffffffffffff166119ce611875565b73ffffffffffffffffffffffffffffffffffffffff1614611a24576040517f08c379a0000000000000000000000000000000000000000000000000000000008152600401611a1b90612d62565b60405180910390fd5b611a2c612338565b82816000019073ffffffffffffffffffffffffffffffffffffffff16908173ffffffffffffffffffffffffffffffffffffffff16815250508181602001818152505060018160400190151590811515815250506000816060019060ff16908160ff16815250508060776000607654815260200190815260200160002060008201518160000160006101000a81548173ffffffffffffffffffffffffffffffffffffffff021916908373ffffffffffffffffffffffffffffffffffffffff1602179055506020820151816001015560408201518160020160006101000a81548160ff02191690831515021790555060608201518160020160016101000a81548160ff021916908360ff16021790555090505060766000815480929190611b50906134da565b9190505550505050565b600080611b65611d88565b9050611b72818585611fe7565b600191505092915050565b6000828483611b8c919061329e565b611b969190612fa8565b90509392505050565b6000600160008473ffffffffffffffffffffffffffffffffffffffff1673ffffffffffffffffffffffffffffffffffffffff16815260200190815260200160002060008373ffffffffffffffffffffffffffffffffffffffff1673ffffffffffffffffffffffffffffffffffffffff16815260200190815260200160002054905092915050565b60776020528060005260406000206000915090508060000160009054906101000a900473ffffffffffffffffffffffffffffffffffffffff16908060010154908060020160009054906101000a900460ff16908060020160019054906101000a900460ff16905084565b611c98611d88565b73ffffffffffffffffffffffffffffffffffffffff16611cb6611875565b73ffffffffffffffffffffffffffffffffffffffff1614611d0c576040517f08c379a0000000000000000000000000000000000000000000000000000000008152600401611d0390612d62565b60405180910390fd5b600073ffffffffffffffffffffffffffffffffffffffff168173ffffffffffffffffffffffffffffffffffffffff161415611d7c576040517f08c379a0000000000000000000000000000000000000000000000000000000008152600401611d7390612c62565b60405180910390fd5b611d8581612268565b50565b600033905090565b600073ffffffffffffffffffffffffffffffffffffffff168373ffffffffffffffffffffffffffffffffffffffff161415611e00576040517f08c379a0000000000000000000000000000000000000000000000000000000008152600401611df790612da2565b60405180910390fd5b600073ffffffffffffffffffffffffffffffffffffffff168273ffffffffffffffffffffffffffffffffffffffff161415611e70576040517f08c379a0000000000000000000000000000000000000000000000000000000008152600401611e6790612c82565b60405180910390fd5b80600160008573ffffffffffffffffffffffffffffffffffffffff1673ffffffffffffffffffffffffffffffffffffffff16815260200190815260200160002060008473ffffffffffffffffffffffffffffffffffffffff1673ffffffffffffffffffffffffffffffffffffffff168152602001908152602001600020819055508173ffffffffffffffffffffffffffffffffffffffff168373ffffffffffffffffffffffffffffffffffffffff167f8c5be1e5ebec7d5bd14f71427d1e84f3dd0314c0f7b2291e5b200ac8c7c3b92583604051611f4e9190612e02565b60405180910390a3505050565b6000611f678484611b9f565b90507fffffffffffffffffffffffffffffffffffffffffffffffffffffffffffffffff8114611fe15781811015611fd3576040517f08c379a0000000000000000000000000000000000000000000000000000000008152600401611fca90612cc2565b60405180910390fd5b611fe08484848403611d90565b5b50505050565b600073ffffffffffffffffffffffffffffffffffffffff168373ffffffffffffffffffffffffffffffffffffffff161415612057576040517f08c379a000000000000000000000000000000000000000000000000000000000815260040161204e90612d82565b60405180910390fd5b600073ffffffffffffffffffffffffffffffffffffffff168273ffffffffffffffffffffffffffffffffffffffff1614156120c7576040517f08c379a00000000000000000000000000000000000000000000000000000000081526004016120be90612c02565b60405180910390fd5b6120d283838361232e565b60008060008573ffffffffffffffffffffffffffffffffffffffff1673ffffffffffffffffffffffffffffffffffffffff16815260200190815260200160002054905081811015612158576040517f08c379a000000000000000000000000000000000000000000000000000000000815260040161214f90612ce2565b60405180910390fd5b8181036000808673ffffffffffffffffffffffffffffffffffffffff1673ffffffffffffffffffffffffffffffffffffffff16815260200190815260200160002081905550816000808573ffffffffffffffffffffffffffffffffffffffff1673ffffffffffffffffffffffffffffffffffffffff16815260200190815260200160002060008282546121eb9190612ee8565b925050819055508273ffffffffffffffffffffffffffffffffffffffff168473ffffffffffffffffffffffffffffffffffffffff167fddf252ad1be2c89b69c2b068fc378daa952ba7f163c4a11628f55a4df523b3ef8460405161224f9190612e02565b60405180910390a3612262848484612333565b50505050565b6000600560009054906101000a900473ffffffffffffffffffffffffffffffffffffffff16905081600560006101000a81548173ffffffffffffffffffffffffffffffffffffffff021916908373ffffffffffffffffffffffffffffffffffffffff1602179055508173ffffffffffffffffffffffffffffffffffffffff168173ffffffffffffffffffffffffffffffffffffffff167f8be0079c531659141344cd1fd0a4f28419497f9722a3daafe3b4186f6b6457e060405160405180910390a35050565b505050565b505050565b6040518060800160405280600073ffffffffffffffffffffffffffffffffffffffff16815260200160008152602001600015158152602001600060ff1681525090565b60008135905061238a816135f8565b92915050565b60008135905061239f8161360f565b92915050565b6000813590506123b481613626565b92915050565b6000602082840312156123cc57600080fd5b60006123da8482850161237b565b91505092915050565b600080604083850312156123f657600080fd5b60006124048582860161237b565b92505060206124158582860161237b565b9150509250929050565b60008060006060848603121561243457600080fd5b60006124428682870161237b565b93505060206124538682870161237b565b925050604061246486828701612390565b9150509250925092565b6000806040838503121561248157600080fd5b600061248f8582860161237b565b92505060206124a085828601612390565b9150509250929050565b6000602082840312156124bc57600080fd5b60006124ca84828501612390565b91505092915050565b600080604083850312156124e657600080fd5b60006124f485828601612390565b925050602061250585828601612390565b9150509250929050565b60008060006060848603121561252457600080fd5b600061253286828701612390565b935050602061254386828701612390565b925050604061255486828701612390565b9150509250925092565b6000806040838503121561257157600080fd5b600061257f85828601612390565b9250506020612590858286016123a5565b9150509250929050565b6125a381613402565b82525050565b6125b281613414565b82525050565b60006125c382612e38565b6125cd8185612e43565b93506125dd818560208601613475565b6125e6816135da565b840191505092915050565b60006125fe602383612e43565b91507f45524332303a207472616e7366657220746f20746865207a65726f206164647260008301527f65737300000000000000000000000000000000000000000000000000000000006020830152604082019050919050565b6000612664603783612e43565b91507f596f7520646f6e277420686176652074686520726967687420746f20766f746560008301527f202f206f7220796f7520616c726561647920766f7465640000000000000000006020830152604082019050919050565b60006126ca600d83612e43565b91507f496e76616c69642073636f7265000000000000000000000000000000000000006000830152602082019050919050565b600061270a602683612e43565b91507f4f776e61626c653a206e6577206f776e657220697320746865207a65726f206160008301527f64647265737300000000000000000000000000000000000000000000000000006020830152604082019050919050565b6000612770602283612e43565b91507f45524332303a20617070726f766520746f20746865207a65726f20616464726560008301527f73730000000000000000000000000000000000000000000000000000000000006020830152604082019050919050565b60006127d6602783612e43565b91507f4e6f7420656e6f7567682062616c616e636520746f207061792074686520656e60008301527f74727920666565000000000000000000000000000000000000000000000000006020830152604082019050919050565b600061283c601d83612e43565b91507f45524332303a20696e73756666696369656e7420616c6c6f77616e63650000006000830152602082019050919050565b600061287c602683612e43565b91507f45524332303a207472616e7366657220616d6f756e742065786365656473206260008301527f616c616e636500000000000000000000000000000000000000000000000000006020830152604082019050919050565b60006128e2601a83612e43565b91507f546865206c6573736f6e206973206e6f74206f766572207965740000000000006000830152602082019050919050565b6000612922601183612e43565b91507f496e76616c6964206c6573736f6e2069640000000000000000000000000000006000830152602082019050919050565b6000612962601483612e43565b91507f546865206c6573736f6e20697320636c6f7365640000000000000000000000006000830152602082019050919050565b60006129a2602083612e43565b91507f4f776e61626c653a2063616c6c6572206973206e6f7420746865206f776e65726000830152602082019050919050565b60006129e2602583612e43565b91507f45524332303a207472616e736665722066726f6d20746865207a65726f20616460008301527f64726573730000000000000000000000000000000000000000000000000000006020830152604082019050919050565b6000612a48602483612e43565b91507f45524332303a20617070726f76652066726f6d20746865207a65726f2061646460008301527f72657373000000000000000000000000000000000000000000000000000000006020830152604082019050919050565b6000612aae601f83612e43565b91507f416c72656164792070617274696369706174656420746865206c6573736f6e006000830152602082019050919050565b6000612aee602583612e43565b91507f45524332303a2064656372656173656420616c6c6f77616e63652062656c6f7760008301527f207a65726f0000000000000000000000000000000000000000000000000000006020830152604082019050919050565b612b508161344a565b82525050565b612b5f81613468565b82525050565b6000602082019050612b7a600083018461259a565b92915050565b6000608082019050612b95600083018761259a565b612ba26020830186612b47565b612baf60408301856125a9565b612bbc6060830184612b56565b95945050505050565b6000602082019050612bda60008301846125a9565b92915050565b60006020820190508181036000830152612bfa81846125b8565b905092915050565b60006020820190508181036000830152612c1b816125f1565b9050919050565b60006020820190508181036000830152612c3b81612657565b9050919050565b60006020820190508181036000830152612c5b816126bd565b9050919050565b60006020820190508181036000830152612c7b816126fd565b9050919050565b60006020820190508181036000830152612c9b81612763565b9050919050565b60006020820190508181036000830152612cbb816127c9565b9050919050565b60006020820190508181036000830152612cdb8161282f565b9050919050565b60006020820190508181036000830152612cfb8161286f565b9050919050565b60006020820190508181036000830152612d1b816128d5565b9050919050565b60006020820190508181036000830152612d3b81612915565b9050919050565b60006020820190508181036000830152612d5b81612955565b9050919050565b60006020820190508181036000830152612d7b81612995565b9050919050565b60006020820190508181036000830152612d9b816129d5565b9050919050565b60006020820190508181036000830152612dbb81612a3b565b9050919050565b60006020820190508181036000830152612ddb81612aa1565b9050919050565b60006020820190508181036000830152612dfb81612ae1565b9050919050565b6000602082019050612e176000830184612b47565b92915050565b6000602082019050612e326000830184612b56565b92915050565b600081519050919050565b600082825260208201905092915050565b6000612e5f82613420565b9150612e6a83613420565b9250817f7fffffffffffffffffffffffffffffffffffffffffffffffffffffffffffffff03831360008312151615612ea557612ea461354d565b5b817f8000000000000000000000000000000000000000000000000000000000000000038312600083121615612edd57612edc61354d565b5b828201905092915050565b6000612ef38261344a565b9150612efe8361344a565b9250827fffffffffffffffffffffffffffffffffffffffffffffffffffffffffffffffff03821115612f3357612f3261354d565b5b828201905092915050565b6000612f4982613420565b9150612f5483613420565b925082612f6457612f6361357c565b5b600160000383147f800000000000000000000000000000000000000000000000000000000000000083141615612f9d57612f9c61354d565b5b828205905092915050565b6000612fb38261344a565b9150612fbe8361344a565b925082612fce57612fcd61357c565b5b828204905092915050565b6000808291508390505b600185111561302357808604811115612fff57612ffe61354d565b5b600185161561300e5780820291505b808102905061301c856135eb565b9450612fe3565b94509492505050565b60008260008114613044576001811461304e57613057565b6001915050613113565b82915050613113565b50816130665760009050613113565b600190506000821360018114613083576000811461309b576130af565b8286048311156130965761309561354d565b5b6130af565b8286058312156130ae576130ad61354d565b5b5b5060018316156130bd578190505b81820291506130cb836135eb565b92506130d985848484612fd9565b9250905081850481116000821316156130f5576130f461354d565b5b818405811260008212161561310d5761310c61354d565b5b81810290505b949350505050565b600061312682613420565b915061313183613468565b925061317f7f7fffffffffffffffffffffffffffffffffffffffffffffffffffffffffffffff7f8000000000000000000000000000000000000000000000000000000000000000858561302c565b905092915050565b600061319282613420565b915061319d83613420565b9250827f7fffffffffffffffffffffffffffffffffffffffffffffffffffffffffffffff04821160008413600084131616156131dc576131db61354d565b5b817f800000000000000000000000000000000000000000000000000000000000000005831260008412600084131616156132195761321861354d565b5b827f800000000000000000000000000000000000000000000000000000000000000005821260008413600084121616156132565761325561354d565b5b827f7fffffffffffffffffffffffffffffffffffffffffffffffffffffffffffffff05821260008412600084121616156132935761329261354d565b5b828202905092915050565b60006132a98261344a565b91506132b48361344a565b9250817fffffffffffffffffffffffffffffffffffffffffffffffffffffffffffffffff04831182151516156132ed576132ec61354d565b5b828202905092915050565b600061330382613454565b915061330e83613454565b92508167ffffffffffffffff048311821515161561332f5761332e61354d565b5b828202905092915050565b600061334582613420565b915061335083613420565b9250827f80000000000000000000000000000000000000000000000000000000000000000182126000841215161561338b5761338a61354d565b5b827f7fffffffffffffffffffffffffffffffffffffffffffffffffffffffffffffff0182136000841216156133c3576133c261354d565b5b828203905092915050565b60006133d98261344a565b91506133e48361344a565b9250828210156133f7576133f661354d565b5b828203905092915050565b600061340d8261342a565b9050919050565b60008115159050919050565b6000819050919050565b600073ffffffffffffffffffffffffffffffffffffffff82169050919050565b6000819050919050565b600067ffffffffffffffff82169050919050565b600060ff82169050919050565b60005b83811015613493578082015181840152602081019050613478565b838111156134a2576000848401525b50505050565b600060028204905060018216806134c057607f821691505b602082108114156134d4576134d36135ab565b5b50919050565b60006134e58261344a565b91507fffffffffffffffffffffffffffffffffffffffffffffffffffffffffffffffff8214156135185761351761354d565b5b600182019050919050565b600061352e82613468565b915060ff8214156135425761354161354d565b5b600182019050919050565b7f4e487b7100000000000000000000000000000000000000000000000000000000600052601160045260246000fd5b7f4e487b7100000000000000000000000000000000000000000000000000000000600052601260045260246000fd5b7f4e487b7100000000000000000000000000000000000000000000000000000000600052602260045260246000fd5b6000601f19601f8301169050919050565b60008160011c9050919050565b61360181613402565b811461360c57600080fd5b50565b6136188161344a565b811461362357600080fd5b50565b61362f81613468565b811461363a57600080fd5b5056fea2646970667358221220bef76f2eb2d35111c60dc98f185b5dfc213562f6099220b6acb7448e7deeb87764736f6c63430008000033",
  "linkReferences": {},
  "deployedLinkReferences": {}
}